:1020000000800020194B0000034B0000034B000030
:1020100000000000000000000000000000000000C0
:10202000000000000000000000000000034B000062
:102030000000000000000000034B00006D4B00009A
:10204000034B0000034B0000034B0000034B000058
:10205000034B0000034B0000034B0000054B000046
:10206000034B0000034B0000034B0000F12D000068
:10207000034B0000034B0000012E0000034B000047
:10208000034B0000034B0000034B0000034B000018
:1020900000000000034B0000034B0000034B000056
:1020A000034B0000034B0000034B0000034B0000F8
:1020B0000000000010B5064C2378002B07D1054B1B
:1020C000002B02D0044800E000BF0123237010BDA4
:1020D00050010020000000007CA9000008B5084B5A
:1020E000002B03D00748084900E000BF07480368F9
:1020F000002B03D0064B002B00D0984708BDC046EC
:10210000000000007CA900005401002040010020D4
:102110000000000010B5041C443002F034FB201C09
:10212000383002F030FB201C2C3002F02CFB201C3D
:10213000203002F028FB201C143002F024FB201C6D
:10214000083002F020FB201C10BD0000F7B56D46E2
:10215000022307352B7002F017FD194B1A681F1C5C
:10216000184B801A984204D8132002F033FF00283D
:1021700024D10E20002102F0FDFE1020012102F0EA
:10218000F9FE0024104E211C301C00F0EDF8291C33
:102190000122301C00F0DCFDFA20800002F0FAFC85
:1021A00002F0F2FC01343860052CEBD11020002144
:1021B00002F0E0FE0E20012102F0DCFEF7BDC04679
:1021C000BC010020983A00006C01002010B5054CBD
:1021D0000549201C00F078F8201C0449044A05F049
:1021E00017FB10BD6C010020040300201521000026
:1021F00000000020F0B52C4CE1252D028BB0201CF6
:10220000291C01F0CDF8294F291C381C02F06EF86A
:10221000274E291C301C02F069F8381C02F09FF987
:10222000201C01F03BF8301C02F099F9132000212A
:1022300002F046FE0E20012102F042FE0F20012195
:1022400002F03EFE1020012102F03AFE1220012190
:1022500002F036FE0E20012102F08CFE01A8154985
:1022600002F0D8FA04A8144902F0D4FA07A81349D6
:1022700002F0D0FA124D04AA07AB01A9281C00F005
:10228000FDF807A802F07FFA04A802F07CFA01A882
:1022900002F079FA281C052100F066F8201C094993
:1022A00000F02AFE0BB0F0BD600400200403002003
:1022B000C0010020E89B0000F99B0000EEA5000093
:1022C0006C0100201A9C000038B5154B041C83805B
:1022D0000123837101601349083002F09BFA201C2E
:1022E0001149143002F096FA104D201C291C2030A0
:1022F00002F090FA201C291C2C3002F08BFA201CD2
:10230000291C383002F086FA201C0949443002F0BA
:1023100081FAFA212068C90000F093FF201C38BD23
:10232000B3090000269C00002F9C0000349F000091
:10233000EEA5000073B5061C0D1C0024AB689C4282
:102340000ED2211C281C02F072FB0649021C01A8B7
:1023500005F0A4FB306801A900F0CEFD0134EDE7E3
:1023600073BDC0464C9C000030B5041C85B00D1EEA
:10237000052D1ED8642002F00DFC206803681B693F
:102380009847031C2068002B03D003685B699847BB
:10239000F3E7094900F0B0FD291C0A22206800F08B
:1023A0000CFE01A821680A2200F04EFF01A802F0ED
:1023B000EAF905B030BDC046519C000070B5041C60
:1023C00064200D1C161C02F0E5FB286803681B69DD
:1023D0009847031C2868002B03D003685B69984763
:1023E000F3E7311C00F09AFD2968201C0A2200F056
:1023F0002BFF201C02F054FB201C70BD30B585B0B3
:10240000041C0D1C01A8084902F096FA291C01AA17
:10241000201CFFF7D3FF01A802F0B5F9201C02F041
:102420003FFB201C05B030BD409C000010B5041CD3
:1024300086B06846211CFFF7E1FF062303A8694622
:10244000022202F007FB03A802F054FB094B98425A
:1024500002D0094B984201D1A08001E00023A38063
:1024600003A8A48802F08FF9684602F08CF9201CBA
:1024700006B010BDB3090000570B0000F0B51E1CDC
:1024800001238DB08371041C0F1C2C309F49151C37
:1024900002F030FA68469E4902F0BCF920680368F1
:1024A0001B699847002804D0206803685B69984737
:1024B000F4E7A388974A934206D0974A934200D004
:1024C0001CE106A8954901E0954906A802F0A2F989
:1024D000211C06AA09A8FFF771FF09A802F053F909
:1024E00006A802F050F9B368102B05D1201C311C4E
:1024F000143002F0DDF916E08A4909A802F08AF9E1
:1025000009AA06A8211CFFF759FF09A802F03BF908
:10251000089A102A04D1201C143006A902F0C8F928
:1025200006A802F030F9804903A802F073F9211CD3
:10253000143103A802F02DFA011C06A802F0C8F914
:10254000211C06AA09A8FFF739FF09A802F01BF908
:1025500006A802F018F903A802F015F9BB68102BC1
:102560001FD1261C2036391C301C02F0A1F96F49FE
:1025700003A802F04FF9311C03A802F00AFA011C6B
:1025800006A802F0A5F9211C06AA09A8FFF716FF64
:1025900009A802F0F8F806A802F0F5F803A802F07E
:1025A000F2F8AA68202A1FD1261C3836291C301CB4
:1025B00002F07EF95E4903A802F02CF9311C03A851
:1025C00002F0E7F9011C06A802F082F9211C06AA14
:1025D00009A8FFF7F3FE09A802F0D5F806A802F053
:1025E000D2F803A802F0CFF8A3884B4A06A893427A
:1025F00001D1504900E0504902F00CF906AA211C13
:1026000009A8FFF7DBFE09A802F0BDF806A802F052
:10261000BAF84A4906A802F0FDF806AA211C09A842
:10262000FFF7CCFE09A802F0AEF806A802F0ABF85E
:10263000434906A802F0EEF806AA211C09A8FFF7F4
:10264000BDFE09A802F09FF806A802F09CF82068D9
:102650003C4900F0F6FD3C4906A802F0DBF8211CDD
:1026600006AA09A8FFF7AAFE09A802F08CF806A896
:1026700002F089F803A8264902F0CCF80226334973
:1026800006A802F0C7F8211C06AA09A8FFF796FEC3
:1026900009A802F078F806A802F075F80A2209A83D
:1026A000216800F0D1FD09A9684602F01BF909A8CC
:1026B00002F069F8264909A802F0ACF809A96846B1
:1026C00002F0A0F9051C09A802F05DF8FA208000CC
:1026D000002D03D002F05EFA012501E002F05AFA63
:1026E000013E002E01D0002DC9D0FA212068C9007A
:1026F00000F0A7FD03A802F046F800E0051C6846BC
:1027000002F041F8281C0DB0F0BDC046349F000017
:10271000EEA50000B3090000570B0000949C0000D8
:102720009E9C0000689C0000AC9C0000BC9C0000CB
:10273000CC9C0000DC9C0000ED9C0000FE9C000096
:102740000E9D0000307500001D9D0000269D0000BC
:10275000349D0000F0B5041C8FB0151C021C08321B
:102760000193261C002383713836101C271C00920D
:102770002C3702F09DF8291C301C02F099F80199C1
:10278000381C02F095F802A8844902F043F820684A
:1027900003681B699847051E04D0206803685B69BD
:1027A0009847F4E7201CFFF741FEA3887C4A934238
:1027B00006D07C4A934200D0E9E008A87A4901E0BB
:1027C0007A4908A802F0B8F808AA211C0BA8FFF75C
:1027D000F5FD0BA801F0D7FF08A801F0D4FF74495C
:1027E00005A802F017F8391C05A802F0D2F8011C60
:1027F00008A802F06DF808AA211C0BA8FFF7DEFD5F
:102800000BA801F0C0FF08A801F0BDFF05A801F06A
:10281000BAFF684905A801F0FDFF311C05A802F0C8
:10282000B8F8011C08A802F053F808AA211C0BA84C
:10283000FFF7C4FD0BA801F0A6FF08A801F0A3FF55
:1028400005A801F0A0FF5C4905A801F0E3FF00998D
:1028500005A802F09EF8011C08A802F039F808AAA1
:10286000211C0BA8FFF7AAFD0BA801F08CFF08A8FC
:1028700001F089FF05A801F086FF504908A802F081
:102880005BF808AA211C0BA8FFF798FD0BA801F024
:102890007AFF08A801F077FF494908A802F04CF830
:1028A00008AA211C0BA8FFF789FD0BA801F06BFFFC
:1028B00008A801F068FFA3883A4A08A8934203D108
:1028C000404901F0A7FF02E03F4902F035F808AAAD
:1028D000211C0BA8FFF772FD0BA801F054FF08A8FC
:1028E00001F051FF394908A802F026F808AA211C76
:1028F0000BA8FFF763FD0BA801F045FF08A801F046
:1029000042FF2068324900F09CFC324908A802F0DE
:1029100013F808AA211C0BA8FFF750FD0BA801F023
:1029200032FF08A801F02FFF2B4908A802F004F895
:10293000211C08AA0BA8FFF741FD0BA801F023FFFB
:1029400008A801F020FF0A220BA8216800F07CFCF7
:102950000BA902A801F0C6FF0BA801F014FFFA2191
:10296000C900206800F06DFCFA20800002F012F926
:102970001A490BA801F04EFF0BA902A802F042F879
:10298000051C0BA801F0FFFE6B1E9D41EDB202A8D5
:1029900001F0F9FE281C0FB0F0BDC046EEA5000006
:1029A000B3090000570B0000949C00009E9C00009F
:1029B000429D0000539D0000649D0000FE9C0000AD
:1029C0000E9D0000DC9C0000ED9C0000759D000049
:1029D00060EA00001D9D0000829D0000349D000003
:1029E00070B5061C38368AB0041C1F49301C01F033
:1029F000DEFF0025A84233D1A379211CAB4212D0BF
:102A0000203101A801F064FF311C04A801F060FF2F
:102A100007A8164901F0FEFE201C01A904AA07AB75
:102A2000FFF72CFD12E0083101A801F051FF311C25
:102A300004A801F04DFF211C2C3107A801F048FF2C
:102A4000201C01A904AA07ABFFF784FE051C07A8F8
:102A500001F099FE04A801F096FE01A801F093FE92
:102A6000281C0AB070BDC046349F0000EEA50000CF
:102A7000F0B58BB0041C02910192039320680368A7
:102A80001B699847002804D0206803685B69984751
:102A9000F4E70B25061C013DEDB2002D00D136E117
:102AA0002068029900F020FA039B002B0BD00199BB
:102AB00007A801F00DFF201C07A9FFF73BFC07A8A2
:102AC00001F061FE03E02068019900F00DFA206832
:102AD00000F01CFA0A2204A8216800F0B5FB8D4919
:102AE00007A801F097FE04A807A901F08BFF071CB7
:102AF00007A801F048FE002F00D183E02068864936
:102B000000F09FFB0A2207A8216800F09DFB07A99F
:102B100004A801F0E7FE07A801F035FEFA212068BD
:102B2000C90000F08EFB7D4907A801F073FE04A8E0
:102B300007A901F067FF071C07A801F024FE002F7A
:102B400000D0E0E0764907A801F064FE04A807A9D8
:102B500001F058FF071C07A801F015FE002F14D044
:102B60002021072204A801F066FF069B421C04A94D
:102B700007A801F06FFF201C07A9443001F0B2FE46
:102B800007A801F000FE0225BEE0664907A801F093
:102B900041FE04A807A901F035FF071C07A801F0B2
:102BA000F2FD002F00D0A7E05F4907A801F032FE38
:102BB00004A807A901F026FF071C07A801F0E3FD00
:102BC000002F01D000259FE0584907A801F022FE00
:102BD00004A807A901F016FF071C07A801F0D3FD00
:102BE000002F00D08FE0524907A801F013FE04A87F
:102BF00007A901F007FF071C07A801F0C4FD002F7B
:102C00007DD079E04B4907A801F004FE04A807A98C
:102C100001F0F8FE071C07A801F0B5FD002FD1D187
:102C2000454907A801F0F6FD04A807A901F0EAFE4E
:102C3000071C07A801F0A7FD002F5DD13F4907A899
:102C400001F0E8FD04A807A901F0DCFE071C07A8B5
:102C500001F099FD002F2DD1394907A801F0DAFDC7
:102C600004A807A901F0CEFE071C07A801F08BFD00
:102C7000002F41D1334907A801F0CCFD04A807A9D2
:102C800001F0C0FE071C07A801F07DFD002F33D125
:102C90002D4907A801F0BEFD04A807A901F0B2FE66
:102CA000071C07A801F06FFD002F08D0731CDEB2CF
:102CB000092E21D8FA20800001F06CFF1FE0234983
:102CC00007A801F0A7FD04A807A901F09BFE071CB7
:102CD00007A801F058FD002F0ED1134907A801F0F5
:102CE00099FD04A807A901F08DFE071C07A801F0B3
:102CF0004AFD002F00D065E7201CFFF771FE04A8F5
:102D000001F041FDC7E6012504A801F03CFD281CA7
:102D10000BB0F0BD969D0000307500008F9D000047
:102D2000999D0000A09D0000A89D0000B99D000095
:102D3000C59D0000CF9D0000DD9D0000E89D0000C6
:102D4000F39D0000FA9D00001A9E00001F9E0000E7
:102D5000F0B5530008338DB0DB08151CDB006A4664
:102D600000AFD21A061C396095467A600024AC4246
:102D700010D23B68381C1A5D1B49083004F08EFEE7
:102D80007A686000391C10180831032204F0A2FD93
:102D90000134ECE7381C79680C3001F03BFD381C3D
:102DA0001249183001F036FD381C391C0C31243022
:102DB00001F08EFD391C3A1C183124320023301CDE
:102DC000FFF756FE041C381C243001F0DCFC381CD4
:102DD000183001F0D8FC381C0C3001F0D4FC201C59
:102DE000BD460DB0F0BDC0463D9D00002A9E0000CE
:102DF00008B5024801F0DAFB08BDC0460403002014
:102E000008B5024801F0D2FB08BDC046C001002051
:102E1000F7B51649164800F0DAF81649164800F0DA
:102E2000D6F8164C1649201C00F0D1F81549164862
:102E300000F0CDF81549164800F0C9F8154F0126E5
:102E40000025381C144900F0C2F8391C0096019581
:102E500027222823114801F0C1FA00960195211C70
:102E600029222A230E4801F0B9FAF7BD00080042D2
:102E70004C040020000C00425004002054040020A8
:102E800000100042001400424804002000180042D4
:102E9000580400205C040020001C0042C0010020F7
:102EA00004030020F7B58A18061C0D1C01920C1CA7
:102EB000019B671B9C4207D0336821781B68301C3C
:102EC000984701340028F3D1381CFEBD38B5051CE5
:102ED0000C1C081E07D004F021FE2B68021C5B6846
:102EE000281C211C984738BD10B504680B1C9A6833
:102EF00009686368984710BD08B5FFF7E7FF08BD8C
:102F000008B503681B68984708BD000008B502496A
:102F1000FFF7DCFF08BDC046ECA5000038B5041C77
:102F2000FFF7E2FF051C201CFFF7F0FF401938BD3A
:102F3000F0B58DB0161C0BAB002201900C1C1A7062
:102F4000012E00D80A266D462B35201C311C02F0BC
:102F5000D9F9201CCFB2311C02F090F9291C041CB5
:102F6000092F01D8303700E03737FFB22F70013D0D
:102F7000002CEAD10198FFF7A9FF0DB0F0BDF8B51C
:102F8000041C0D1C161E04D10368C9B21B689847A7
:102F900012E00A2A0DD100290ADA2D21FFF7B0FF2D
:102FA0006942071C321C201CFFF7C2FFC01903E056
:102FB00000E0D2B2FFF7BCFFF8BD38B5041CFFF744
:102FC000DEFF051C201CFFF7A1FF281838BD01609B
:102FD0007047F7B508AC267804689D1E27686C1EFC
:102FE000A541ECB2920705683A4327063A432A60A6
:102FF0000268072529405068B501002C00D05C0309
:10300000294301430C435460F7BD30B50368C02524
:103010001C68AD0312052A402243C024A4020904FF
:1030200021401143196003685A6814435C6030BD45
:10303000036801211A680A431A60026811680123B3
:103040001942FBD1D1691942F8D1704703680221B6
:103050001A680A431A600268D3699907FCD470475A
:1030600003681A7ED10702D41A7E9107FCD57047F7
:10307000036800225A8370470368187E4007C00F18
:1030800070470368187EC009704703688022197E64
:1030900052420A431A7670470368187E012318408B
:1030A00070470368188DC0B2704703681A7E01200C
:1030B0000242FBD019857047036801229A75704758
:1030C000036801221A7570470368224A30B593429B
:1030D00011D0214A934211D0204A934211D0204A64
:1030E000934211D01F4A934211D01F4A934230D1CC
:1030F0000E2319220DE0092314220AE00A231522C7
:1031000007E00B23162204E00C23172201E00D2315
:103110001822DCB2154901209B08A0409B000860E2
:103120005B180320C021890004405D58E000FF24A3
:103130008440A5432C1CC0258540281C20435850A2
:103140008023DB011A430A4B5A805A7852B2002A74
:10315000FBDB30BD00080042000C004200100042C2
:103160000014004200180042001C004200E100E090
:10317000000C0040F7B5041C151C0E1C0193FFF752
:10318000A3FF201CFFF754FFB1001C220A4069076F
:103190002368090C0A431A60226884239375012E60
:1031A00036D126681B4F012D05D9AB1E0322012BFA
:1031B0001BD8082219E01022012D18D13868019976
:1031C000C000514302F05AF8B38907220240DB04E1
:1031D0005203DB0C1343B38123680004C20C9889AB
:1031E000400B40031043988112E0032DE6D0019B71
:1031F0000025190C1804002302F04EF93A682B1C24
:103200005408001BA94102F027F9404280B2B08166
:10321000F7BDC0468000002010B5041C01F0B4FCCE
:10322000E0602368201C5B699847002808DA01F0F9
:10323000ABFCE368C01AA3689842F2D30120404275
:1032400010BD81607047000070B50D1C0949041C59
:10325000161C01F0DFFA281CFFF7DEFF002806DB52
:10326000B04204D0C1B2201C01F089FBF3E7201C5E
:1032700070BDC046EEA500003F20704713B5026840
:103280006B46D97107335468191C0122A04716BD3B
:1032900008B50069022100F029FC08BD08B50069E5
:1032A000032100F039FC08BD38B50D1C041C131CAB
:1032B000006903212A1C00F01FFD002801D1012311
:1032C000636038BD10B5054C23685A1C04D10368EF
:1032D0005B6998472060031C181C10BD5400002037
:1032E000074A08B51368591C04D0012149421160EE
:1032F000181C03E00069022100F0F0FC08BDC04684
:103300005400002008B503780349023303704222B9
:10331000024800F09BFD08BD100000202709002096
:1033200010B50178031C42780020A12908D1212A78
:103330002FD118481849072200F088FD012028E005
:10334000212926D1202A05D113490722114800F04E
:1033500029FC04E0222A10D19A780F4BDA710E4B27
:1033600096221968D200914210D1DC7901231C40C9
:103370000CD1FA2001F0A8FE0AE0232A09D1DA785C
:103380009B7812021A43054B1A6002E001F0A2FE7C
:10339000002010BD27090020040000200C000020A0
:1033A00070470000064BFA21890099600549002208
:1033B0000831196004495A6019611A767047C0468D
:1033C0006004002000A600002709002010B5072394
:1033D0000F220240141C00093034092A00DD073492
:1033E000CC54013BF4D210BD70B582291ED1C2B2BB
:1033F0002A495301CB189D69294C80012C40C025D6
:10340000AD052C439C61274C0832201858610B688D
:10341000520199180C798020404220430871D15CF8
:103420007020814330200143D15435E0002933D14D
:10343000C2B21A495301CB189E68194DC0242E40C0
:10344000A40526439E60184E800109683018083292
:1034500058605201505C0726B04301263043505457
:103460009E6935402C439C610E4C5C61505C70241D
:10347000A0431024204350549C680C488A182040D4
:10348000802464032043986098684021800B800367
:10349000986053790B43537170BDC0462C090020CE
:1034A000FFFFFF8F8805002048070020FF3F00F046
:1034B00038B5041C08CC01211A78051C0A431A707F
:1034C0008022201C0021520004F026FA2B689A78F2
:1034D000D107FCD45C6238BD134BF0B51B6899036F
:1034E0005A029B01C90ED20E5B0F1F2900D1052184
:1034F0001F2A00D11D22072B00D1032304688E014F
:10350000278D0A491F2539403143218501682A400A
:103510000C8DAC4322430A8502681903108D044BBD
:1035200003400B431385F0BD246080003FF8FFFF8C
:10353000FF8FFFFFEFF3108303600123436072B638
:1035400070470368002B02D162B6BFF36F8F7047DC
:1035500037B50569041C6846002D12D1FFF7EAFF54
:10356000019B013B03D3621DD57FEDB2F9E76846AD
:103570000193FFF7E6FF0020854217D0206AE36938
:1035800013E0FFF7D7FF019B0025013B04D3221C6A
:1035900034321578EDB2F8E768460193FFF7D1FFB2
:1035A0000020854202D0206BE36AC01A3EBD0000B5
:1035B000436810B51A68037A01215B01D318FF3301
:1035C0009A7A0A439A72037A42685B01D318C268F6
:1035D0009C6891040B4A090922400A439A60037AC5
:1035E00042685B01D3189A684021920B92039A605B
:1035F00043681A68037A08335B01D3181A790A43BF
:103600001A7110BDFF3F00F0F7B50569041C0E1CD0
:10361000171C6846002D1FD1FFF78CFF019B013B53
:103620005A1C06D0621DD17F5A1E00293AD0131CA5
:10363000F6E768460193FFF784FF0025E369BD4282
:1036400035D0226A934232D25A1CE261A269D31861
:103650001B7873550135F1E7FFF76CFF019B013BC8
:103660005A1C08D0221C343215785A1EEDB2002D97
:1036700018D0131CF4E768460193FFF762FF00259A
:10368000E36ABD4226D0226B934241D322E0621D01
:103690000021D17730321678581E8E4214D1031C87
:1036A0005A1CF4D168460193FFF74BFF38E0226AB9
:1036B000934235D10023E361012323616846FFF77C
:1036C00039FF019B013BEBE71170201C0193FFF7D1
:1036D0006FFFF6E7226B934222D10023E36223615E
:1036E0006846FFF727FF019B013B5A1CDAD0221CDA
:1036F00034320021117001321678581E8E4201D1E9
:10370000031CF2E71170201C0193FFF751FFEAE759
:103710005A1CE262A26AD3181B7873550135AFE7D1
:10372000281CFEBD37B54368027A1B680832520177
:103730009A18041CD0790123FF21184255D0D37167
:10374000A068656962680140002D1FD149015218C7
:1037500091688904890C2162216A002942D0636141
:10376000A36A68465360FFF7E5FE019B013B5D1CC1
:1037700034D0621D0120D0772F3211785D1EC9B27E
:103780001218002915D111702B1CF0E74B01D3182A
:103790009A689204920C2263226B002A22D00022A3
:1037A0006261A26968465A60FFF7C4FE019B013B53
:1037B00012E0019310706846FFF7C3FE15E0221C6B
:1037C000343201201070621DD17F5D1EC9B23032CB
:1037D0000029EED111702B1C5D1CF0D168460193BD
:1037E000FFF7AFFE201CFFF7E3FE37BD37B5002320
:1037F0006C46E3710734201C0D1CFFF783FD2B681A
:103800001818286001F0EEFC211C01F0A5FC2B68C3
:103810001818286020783EBD03290BD10D4BB22229
:103820001B685200985C802149420143995402214F
:1038300068220CE001290CD1064B92221B68520031
:10384000985C802149420143995402212822FF3289
:10385000995470472C09002038B5264B2021DA698D
:10386000051C0A43DA61244B01201A78062402431E
:103870001A70224B0F22197891431970197821433D
:1038800019701F490C782043087019780A401A7083
:103890001A7860210A431A701A4B1B4A5A805A78C8
:1038A000D209FCD1194801F069F9194C201CFFF725
:1038B000FFFD201CFFF710FE23687F2219780A40C5
:1038C0001A701A7804210A431A701A890C218A4343
:1038D0001A81C1210F4A890050580002000A505035
:1038E000802111601A7802210A431A7001232B707B
:1038F00038BDC04600040040584400413C440041EB
:1039000059440041000C004006400000C94200003C
:103910002C09002000E100E00078002810D0094BBD
:1039200001211B681A898A431A811A8B08210A43CC
:103930001A831A8B04210A431A83034B00221A604C
:103940007047C0462C090020300A00200F4B9A69AE
:10395000920B92039A611B680222FF331A729879C4
:103960008022524202439A711A7A9007FCD5084B82
:10397000081C997A7F221040914301439972997AE9
:10398000802252420A439A727047C0462C09002096
:103990000050004110B50B790C1C002B0BD1081CFA
:1039A000FFF7BEFC002804D1094B9A69920B9203E1
:1039B0009A6101200BE001F015FC211C01F000FCD4
:1039C0000028F6D1024B9A69920B92039A6110BDBE
:1039D0002C090020F7B50E1C832A18D1CAB235492C
:1039E0005301CB189C693448B6012040C024A4057B
:1039F000204398613148083286195E610B68520194
:103A0000D15C7020814340200143D15450E0022A10
:103A10004AD12B4A89008D580191002D48D1382078
:103A200001F0F6F8274B80270360224B7F004360AC
:103A3000431D0562866005614561C561C760DD772C
:103A40002F33041CC56205631D70381C5D7003F0C4
:103A50002DFFA061381C03F029FFFF2315491E40EC
:103A60007601A0628E19B168134A07250A40C02169
:103A700089050A43B260A16862681940126808317A
:103A80004901885CA843032528438854A2686168DB
:103A900013405B01A269CB185A60201CFFF788FD18
:103AA000019B07495C5003E0081C111CFFF79CFCBC
:103AB000F7BDC0462C090020FFFFFF8F88050020BE
:103AC0000809002030A6000038B5051C0124064B6B
:103AD000A200D258002A06D0211C281C0134FFF76E
:103AE00079FFE4B2F3E738BD5800002008B5084B71
:103AF0008A00D058002803D003689B68984706E0E6
:103B0000C9B2044B4901591888688004800C08BD6B
:103B1000080900202C09002010B50C1CFFF7E6FF57
:103B200000280CD0064BE1B21B6808314901591836
:103B30004A7980235B4213434B710223CB7110BD42
:103B40002C09002070B5CAB2134B144854018901E6
:103B50005918031959609D68114908322940802578
:103B6000AD022943996099684026890B89039960C1
:103B70000368510159180D7935430D7151015918D8
:103B800089794D06FAD551015918C979CD07FAD569
:103B90000419A068C0B270BD480700202C0900209D
:103BA000FF3F00F038B50C4B141C1B680D1CFF3395
:103BB0005A7940210A435A710021FFF7C3FFA042FE
:103BC00000D9201C0023A34204D0044A9A5CEA5482
:103BD0000133F8E738BDC0462C0900204807002013
:103BE00010B5C9B20C48490143189A689204920C66
:103BF0003F2A08D9141C9A68403CA404920BA40CD8
:103C00009203224302E09A68920B92039A60411851
:103C10008868C0B210BDC0462C090020F0B51C1C3D
:103C20002A4B85B01B68061C0D1C0292002B46D047
:103C3000274B8A00D058002805D0036802995B689A
:103C4000221C98473FE0301CFFF750FFA04204D2EF
:103C5000301C291CFFF74AFF041C291C301CFFF7ED
:103C6000BFFF1C4FE9B24A010191396803928B18DA
:103C7000FF335A7A01210A4317495A72AB01C91816
:103C80000298221C03F026FE002C1BD0301C291C9D
:103C9000FFF72CFF002815D1019B3A6808335B0120
:103CA000D31819794020014319710121D971039961
:103CB0005318FF339A7A01210A439A7202E00120D5
:103CC000404200E0201C05B0F0BDC046300A002094
:103CD000080900202C0900204807002013B56C4675
:103CE0000734221C0123FFF799FF012801D1207816
:103CF00001E00120404216BDF0B51C1C3A4B85B0D6
:103D00001B680E1C0292002B60D08023DB019C42BA
:103D10005CD800220092002C56D0344DF7B22B68AC
:103D200001933B1C0833019A5B01D3189B79DB0993
:103D30001AD02F4B2F49186801F0A0FA2E4B1721EB
:103D4000584301F09BFA3B1C0833019A5B01D318DE
:103D5000DB799A0708D4294B9A5D002A38D1421E94
:103D6000002835D0101CEEE7244B00229A55251E62
:103D70003F2D00D93F25224AB301D318181C0299C0
:103D80002A1C039303F0A6FD184A7B01D318039A5B
:103D9000A9045A619A69890C920B92030A439A61A9
:103DA0003B1C019A08335B01D3180222DA7159795E
:103DB000802252420A435A71009B029A5B1952199F
:103DC0000093641B0292A6E700980BE0012008E034
:103DD00001229A557B01ED18AB69101C9B0B9B03CC
:103DE000AB61404205B0F0BD300A00202C09002034
:103DF0008000002040420F0070110100800500206B
:103E00008805002070B50E4D1C1C8B01ED18281C78
:103E10000E1C111C221C03F05DFDF6B2094976014F
:103E200089194D618A69084B201C13408B618B698D
:103E3000A2049B0B920C9B0313438B6170BDC04685
:103E4000880500202C090020FF3F00F0F7B5114B3A
:103E500001901B780F1C141C002B19D10E4B1E78DF
:103E6000002E01D1151C08E00C4D0D482E8880193C
:103E7000361903F02FFD2E800AE0002D08D0BA1964
:103E80002B1C01980021FFF7BDFF36182D1AF4E70F
:103E9000201CFEBD26090020240900207E050020EC
:103EA0007D040020F8B50E1C00AF151E012D28D989
:103EB000D31DDB08DB006A46D21A9546081C03F0C6
:103EC0002DFE01306C4640000323207063700222F7
:103ED000AA420ED23378002B0BD0511CC9B2013646
:103EE000A354A94204D0002302326354D2B2EFE7B4
:103EF0002A1C0548211CFFF7A9FF431E9841C0B2A8
:103F000000E00020BD46F8BD2709002008B5044B9D
:103F100000221A70034B04491A88FFF797FF08BD67
:103F2000240900207E0500207D040020F0B5204AF1
:103F300087B001230026009102A91370051C029688
:103F4000FFF754FC03AC092701903A1C201C311CDC
:103F500003F0E2FC02236370A023E371FA232372CF
:103F6000029B0122DB196380019B62712371104A5D
:103F7000009B27701670BB4205D1281C211C1A1CFF
:103F8000FFF764FF11E00B4B01221A700A4B211C52
:103F90003A1C281C1E800296FFF758FF281C02A915
:103FA000FFF724FC281CFFF7B1FF012007B0F0BD8C
:103FB00026090020240900207E05002070B5CE7857
:103FC00092B0051C0C1C022E08D1C9882D48FFF7A1
:103FD000ADFF031C581E8341D8B251E001F002F935
:103FE000211C01F0CEF8002803D0C3171B1AD80FEC
:103FF00046E0012E04D1E2882349112A3BD837E05C
:10400000032E3DD1A278002A05D12049E2880B7801
:1040100093422DD82FE0022A03D1A279281C1C49F3
:1040200004E0012A05D1A2791A49281CFFF73AFFBA
:1040300026E0032A24D1184B01A91868FFF7C6F916
:10404000164B03A91868FFF7C1F9154B05A91868A5
:10405000FFF7BCF9134B07A91868FFF7B7F901F090
:10406000C1F809A901F09DF8A279281C01A9DDE792
:10407000D2B2002A00D10A78281CFFF7E7FE0120FF
:1040800012B070BD2709002050A600004CA6000009
:1040900062A6000040A600000CA0800040A08000A6
:1040A00044A0800048A0800073B5051C48780C1C13
:1040B0000B2878D801F0D8F8081C7728773E4306FB
:1040C000474B686F00206FE0097801AA002903D1EF
:1040D00011705170281C09E0002313705370334B8A
:1040E0001B78012B00D11370281C002102234FE004
:1040F0008A780023012A04D101AA137053702C4B33
:10410000EEE72A4A137049E08E78012E07D1284B3A
:1041100001AA00211E701170281C331C38E0002EEB
:1041200008D1224A01231370224A9169890B89031D
:10413000916138E0A178281CFFF708FC33E0281CC7
:10414000FFF73CFF30E0281C00211B4A1FE00A78E3
:104150000020D30628D1281CFFF7B6FCA278154909
:10416000154B02241A600A682A23FF33D05C2043CF
:10417000D0544A20FF30145C01231C4314548A6934
:10418000920B92038A610EE00C4A281C0021012345
:10419000FFF738FE07E08A78084B1A60054B9A69EA
:1041A000920B92039A61012076BDC0467C040020E8
:1041B000250900202C090020300A002028090020B1
:1041C000F8B53B4B071C1C78002C70D1394D286882
:1041D000838B19070ED5201C211CFFF705F92B68CE
:1041E00010201A1CFF32917A01439172324A1460F6
:1041F00008229A832B689A8B500701D504229A8350
:10420000FF331A7AD10626D510221A725A79402124
:104210000A432A495A710A786023381C1A4202D18B
:10422000FFF742FF01E0FFF7B5FB002806D02B683F
:104230008022FF33997952420A4301E0204B202229
:104240009A712B68FF331A7A500604D540221A72ED
:10425000597A0A435A722968FE230E8C00241E40A4
:10426000E1B2002E23D0321C012322411A4216D083
:10427000221C2868083252018218D079184203D1D2
:10428000D279DA401A4207D00E4BA200D05800284B
:1042900009D003681B6898470123A3409E4301345B
:1042A000092CDDD103E0381CFFF7B6FAF4E7F8BDBE
:1042B000240900202C090020300A00204807002093
:1042C000FF5000410809002008B50248FFF778FFB9
:1042D00008BDC04627090020014A024B1A607047FA
:1042E000005000412C0900200120704708B50368E8
:1042F000014A1B6A984708BD13040000031C021CF6
:104300009C33983219681268914203D01B68C01818
:10431000007D01E001204042704710B5041C006997
:10432000FEF786FE221C0023983229341360FF34E6
:1043300053601032D367236010BD0000F0B587B022
:1043400001930CAB1B78002502930DAB1B788126E3
:1043500003930EAB1B78041C04930FAB1B780F1C4C
:104360000593FA239B0083601B4B00920833456042
:104370000360291C321C143003F0CEFA231C98333E
:10438000201C1D60321C5D60291CA03003F0C4FAA3
:10439000231C9422A8335200DD67A3181D60009AE5
:1043A00096235B002761E254019A2E23FF33E254E7
:1043B000029A97235B00E254039A3023FF33E254BE
:1043C000049A98235B00E254059AA0235B00201C0A
:1043D000E25407B0F0BDC04670A6000030B585B00D
:1043E000041C08A8057809A8007800950190FF2012
:1043F00002900390201CFFF7A1FF201C05B030BDE8
:10440000F023081C18403038434258417047F023CD
:104410001B01194080239B0099420CD0C0239B00B4
:10442000994206D080235B000520994204D00020E9
:1044300002E0072000E0062070470F231940012901
:1044400005D002394B424B410220C01A00E0002047
:1044500070470000F7B596235B00041CC05C18236E
:104460004343364F0E1CFB1808215956151C00F00B
:10447000C9FD2E23FF33E05C182343430821FB18BA
:10448000595600F0BFFD3023FF33E25C022A0CD105
:10449000A0235B00E05CFF2807D018234343274993
:1044A000CB180821595600F0ADFD98277F00E05D3C
:1044B000FF2817D0012100F003FDE35D18275F43BB
:1044C0001E4B1F48DA57231CD2011118FC331B481E
:1044D00099631C49C7195218796801208840DA632A
:1044E00018641060184B2069012100229E4200D9F7
:1044F0000A1C331CFEF73EFE291C201CFFF787FF19
:10450000291C071C201CFFF798FF291C061C201CD7
:10451000FFF776FF391C331C009001222069FEF75B
:1045200058FD302297235B00FF32A15C2069E25CDA
:10453000FEF76BFD2069FEF789FDF7BD24A10000A1
:10454000184400411444004157020000031C083382
:104550008830DA6F0368D01A00D58130704710B503
:10456000041C201CA030FFF7F1FF0028F9D12069BE
:10457000FEF776FD10BD08B51430FFF7E7FF08BD64
:10458000031C08338830D96F0268914204DBDB6F6B
:104590000068C01A803003E00068DB6FC01A013881
:1045A000704708B5A030FFF7EBFF08BDF8B5041C55
:1045B0000069FEF761FD002823D02069FEF771FD38
:1045C000251C9835061C28688121013000F09AFED0
:1045D000231C9C331B68994203D02B68E3181E757B
:1045E000296098235B00E35CFF2B0AD0201C143069
:1045F000FFF7C6FF092804DC231CFC339A6B1B6CF5
:1046000013602069FEF748FD002824D0271CA0373E
:10461000381CFFF79BFF2669002819D094235B0004
:10462000E518231CA8332A68DB6F9A4209D02B684F
:10463000286881210130FF5C00F064FE2960391C8C
:1046400001E001214942C9B2301CFEF72EFD02E013
:10465000301CFEF735FD2069FEF713FD002805D05C
:104660002069FEF712FD2069FEF702FDF8BD00008B
:10467000F7B5041C00690E1CFEF70EFD221CA032CB
:10468000009200280ED0101CFFF760FF002845D0D4
:1046900008E0EFF31083DA0727D4234B5A68D205DA
:1046A000D20D0FD1251C94225200A835A718E86F0F
:1046B0003B6801308121019300F024FE019A914270
:1046C000E7D01BE0103AD2B253B2002B08DA0F2326
:1046D0001A40083A154B92089200D218536804E029
:1046E0009B08C033124A9B009B582069FEF7D4FCFC
:1046F0000028D7D0201CFFF759FFD3E7E86F8121AE
:10470000013000F0FFFD3B68994203D0EB6F009A47
:10471000D654E9672069FEF7CFFC03E02069311C1D
:10472000FEF7C3FC0120FEBD00ED00E018ED00E047
:1047300000E100E070B5031C051C9C3598332A6825
:104740001B68041C9A420AD02B688121C318286870
:104750001E7D013000F0D6FD2960351C01E00125E9
:104760006D4298235B00E35CFF2B09D0201C1430C2
:10477000FFF706FF0A2803DDFC34E36B226C1A60A6
:10478000281C70BD704710B5041C006803F098F831
:10479000201C10BD10B5041C0068002801D003F0D7
:1047A0008FF800232360A360636010BD38B5041C3C
:1047B0000D1C0068013103F053F9002801D021C419
:1047C000012038BD036810B5041C002B02D04368DB
:1047D0008B4209D2201CFFF7E9FF002805D0A3680F
:1047E000002B01D122681370012010BD70B50E1C82
:1047F000111C041C151CFFF7E5FF002803D1201C29
:10480000FFF7C8FF04E0A5602068311C03F07EF9C3
:10481000201C70BD38B50023041C0D1C03604360D0
:104820008360994207D0081C03F078F9291C021C08
:10483000201CFFF7DBFF201C38BD70B50E1C111CBF
:10484000041C151CFFF7BEFF002803D1201CFFF736
:10485000A1FF04E0A5602068311C03F057F9201C7B
:1048600070BD000038B5051C00680C1C002811D074
:10487000096800290CD00D4B002B09D06A68A36889
:104880009A4205D303F042F9A368AB6000230AE023
:1048900003F016F8226863682A60A2686B60002340
:1048A000AA6023606360A36038BDC04685470000EE
:1048B00010B50B1C041E8C4208D00968002903D0D7
:1048C0009A68FFF793FF01E0FFF764FF201C10BD1B
:1048D00010B50023041C036043608360FFF7E8FF0A
:1048E000201C10BD10B5041E8C4201D0FFF7BAFF8A
:1048F000201C10BD38B5041C0D1E08D0081C03F088
:104900000DF9291C021C201CFFF770FF01E0FFF7C6
:1049100041FF201C38BD38B5041C0D1E08D0081CF2
:1049200003F0FCF8291C021C201CFFF786FF01E0A5
:10493000FFF730FF201C38BD10B50023041C0360B6
:1049400043608360FFF7E7FF201C10BDF8B5041C2F
:104950000F1C866801D100250FE00125002A0CD02C
:104960009619311CFFF72EFF0028F4D02268A368A7
:10497000391CD01803F0CAF8A660281CF8BD07B58A
:10498000002201AB19705A70191C0122FFF7DEFFDB
:104990000EBD0B1C10B509689A68041CFFF7D6FF02
:1049A000002802D1201CFFF7F5FE201C10BD08B521
:1049B0008368002B05D1002901D0087808E0012088
:1049C00009E00068002901D1007801E003F094F8C3
:1049D00043425841C0B208BD38B5041C8B6880689A
:1049E000C51A0020AA420CD82468844209D009685C
:1049F000814206D0A0181A1C03F097F84342584190
:104A0000C0B238BD10B583688C680022A34202D3BF
:104A1000FFF7E2FF021C101C10BD031C9A68002067
:104A2000914203D21B68834200D0585C704708B59E
:104A3000FFF7F3FF08BD836810B59A4207D20468F8
:104A4000A01803F04DF8002801D0001B01E0012060
:104A5000404210BDF7B5071C0E1C141C1D1C9A42C9
:104A600001D92C1C151C381C0C49FFF7D3FEB36868
:104A70009C4210D29D4200D91D1C3268381C53192B
:104A80001A78019200221A7033681919FFF732FF61
:104A90003368019A5A55381CFEBDC046EEA5000089
:104AA000F8B50668051C002E23D08768341C002F3B
:104AB0001FD0207802F0F0FE002801D00134F8E782
:104AC000013FF719387802F0E7FE002809D10137D5
:104AD0003A1BAA60B44208D9301C211C02F0FAFE2D
:104AE00003E0A742F3D3013FECE72A68AB6800215B
:104AF000D154F8BD006808B5002801D002F08FFE3F
:104B000008BDFEE708B5034B1B68002B00D0984793
:104B100008BDC046340A002038B50F490F4CA142E9
:104B200004D100F079F800F053F80BE00C4D8D4201
:104B3000F7D00023CA18E818A24204D20068043350
:104B40001060F7E7FEE79042EBD0064B064A93422F
:104B5000E7D2002204C3F9E7000000205001002042
:104B600088A9000050010020580A002008B500F074
:104B70002CF8002801D100F01DF808BD014B186089
:104B80007047C046340A0020014B18687047C04681
:104B9000380A002070B5041E08D0054B1D681E1C85
:104BA00000F012F833685B1BA342F9D370BDC04616
:104BB000380A002008B5034B1A6801321A6000F069
:104BC00091FA08BD380A00207047002070477047EE
:104BD00010B500F0D5F802F039FEFFF7F8FF01201C
:104BE000FFF7D8FF084C201CFEF736FE201CFEF70E
:104BF00093FEFDF7FFFAFDF7A9FA044B002BFAD05C
:104C000000E000BFF7E7C0462709002000000000D1
:104C100008B502F04BFE08BD70B5494A1E21536825
:104C200002208B430343474953608B690824234385
:104C30008B61454C454B9C829C8A20439882101C7A
:104C4000DA689407FCD5424A012414701478E50709
:104C500004D53F4C647864B2002CF7DB01249460E7
:104C6000547864B2002CFBDB3A4D394C65605478C3
:104C700064B2002CFBDB8225354CED016580547855
:104C800064B2002CFBDB02249C84DC68E606FCD5C5
:104C9000314D2E4CE562DD682C4CEE06FBD5A58C23
:104CA0002E4E3543A584DD68284CEE06FBD5A58C39
:104CB00002263543A584DC682506FCD5234CE46830
:104CC0006606F8D5DC68E506FCD5002494605478C7
:104CD00064B2002CFBDB224D1D4C656055781C4CEA
:104CE0006DB2002DFADB1E6A1E4D35401D621D6A35
:104CF0008026B5431D620323A3601B4B636053787A
:104D00005BB2002BFBDB00230B72184A4B728B72D9
:104D1000CB72174BFF211A60164B174A1B6812689B
:104D20005C01D20E214011439A06520F12020B1C55
:104D30001343124A1385436880221343436070BDB6
:104D400000400041000400400C0600000008004044
:104D5000000C004001050100B905FF7D040A0000B8
:104D600000070300FFFCFFFF03060100006CDC02EC
:104D7000800000202460800020608000004000420D
:104D80002E4BFA21186810B5890000F077FA2C4BE9
:104D90000138984224D82B4A2B4B5060186AC02106
:104DA0000002000A090601431962002191600721EF
:104DB0001160196A80220902090A12060A431A625E
:104DC000224BFC211A6A0A431A62196AFC229201D8
:104DD0000A431A62196AA022D2020A431A6200E048
:104DE000FEE71B4C63785BB2002BFADB194B638048
:104DF000194B5A7ED209012AFAD0E422D2009A80B5
:104E00003F22DA70597E144AC9090129FAD0C02319
:104E10005B0100201361907000F024F863785BB2AE
:104E2000002BFBDB0D4A0A4B5A800D4BDA79D20975
:104E3000012AFAD041225A7010BDC04680000020DD
:104E4000FFFFFF0010E000E000ED00E00004004084
:104E5000000C00401E4000000040004221400000C5
:104E60000048004200B5144A517E131CC9090129AB
:104E7000F9D00138042813D81969104A0A401A6178
:104E80005A780F218A4300F0EFF903050907030060
:104E9000012102E0032100E002210A435A700AE0E6
:104EA0001169F0231B050B43136153780F218B43CA
:104EB00002210B43537000BD00400042FFFFFFF092
:104EC00010B51824021C201C5043274B1818007AD8
:104ED00040B2013046D0032944D8081C211C00F000
:104EE000C3F902331121624398569A18C3011F482F
:104EF00052681B1899184031022008700121914016
:104F000059602FE06243985618499A185268C301B5
:104F10005B189918403106200870012191405960B2
:104F200099611FE051435A56104859184B68D201F5
:104F30001118C818403006240470012098404860B9
:104F40000B49521850600DE0624398569A18C301FD
:104F5000064852681B189918403102200870012138
:104F60009140996010BDC04624A10000004400415A
:104F70001044004118235843134AF0B5131808246D
:104F80001C5701341FD08256104ED2015D68012497
:104F90009019231C8668AB401E420BD10E1C771E55
:104FA000BE41401934404030A50004780426B44383
:104FB0002C430470002903D105495218536002E0C4
:104FC000024E92199361F0BD24A1000000440041FB
:104FD0001044004118235843084A08211318595611
:104FE000013109D082560649D20152185B68106A15
:104FF000D8400123184000E00020704724A10000A1
:105000000044004118224243F8B52D4D0824AA1847
:105010001457031C621C50D0481C00240C284CD888
:1050200000F022F9071E1E1E1E1E1E1E1E0A0A0A60
:105030000A000124644240E0092902D1181C002121
:1050400003E00A2904D1181C0221FFF739FF23E0ED
:1050500000240B2931D1181C0121FFF731FF2CE06E
:1050600018225343EA185268EB560120141C0440DE
:105070005508DB01002C11D0124C1B195D1930357D
:105080002E780C010F21314021439A18C9B22970A2
:10509000403213781843107000240EE0094E0F2799
:1050A0009B195D1930352E789A18BE433143C9B229
:1050B00029704032137818431070201CF8BDC04688
:1050C00024A1000000440041014B18607047C04615
:1050D00084000020024B012252421A607047C046F1
:1050E00084000020154A1368581C25D0013B13602A
:1050F000002B21D172B6124A124B04329A4207D8C1
:10510000BFF34F8F104A114BDA60BFF34F8F11E09E
:105110000F4B197DC807FBD5188B2021FF31920852
:10512000520001431983DA610A4A1A801A7DD107B5
:10513000FCD5E5E7C046FDE77047C0468400002087
:1051400000200000030200000400FA0500ED00E06A
:105150000040004102A5FFFF70B544680E1C002509
:10516000002C09D02368201C5B68311C984700285C
:1051700004DB2D18E468F3E7281C01E0012040421D
:1051800070BD38B544680D1C002C08D02368201C65
:105190009B68291C9847002802D1E468F4E7201C8A
:1051A00038BD38B544680D1C002C07D02368201C7E
:1051B000291CDB689847E4682D18F5E72C7038BD8A
:1051C00038B544680D1C002C08D02368201C1B68CF
:1051D000291C9847002803D1E468F4E7201C00E06C
:1051E000012038BD064B0122196810B51140054851
:1051F00005D1022404700424447041601A6010BD7B
:10520000440A00203C0A00200B1C011C021C30B583
:1052100019430220002900D130BD802109068B42AC
:1052200016D00D4904205C180C498C42F4D90C4D61
:105230005C198C42F0D90B4C590049080320A1425B
:10524000EAD9074C0020A142E6D150425041E3E7A1
:10525000002AE1D0EFE7C0460000F0FFFFFFDF7F4C
:105260000000F07FFFFF0F0002B4714649084900BB
:10527000095C49008E4402BC7047C046002934D006
:105280000123002210B488422CD301242407A14218
:1052900004D2814202D209011B01F8E7E400A142D5
:1052A00004D2814202D249005B00F8E7884201D370
:1052B000401A1A434C08A04202D3001B5C08224348
:1052C0008C08A04202D3001B9C082243CC08A042B9
:1052D00002D3001BDC082243002803D01B0901D0A5
:1052E0000909E3E7101C10BC7047002801D000201A
:1052F000C04307B4024802A14018029003BDC04653
:10530000D90000000029F0D003B5FFF7B9FF0EBCAB
:105310004243891A1847C046002941D010B4041CE2
:105320004C40A44601230022002900D54942002810
:1053300000D5404288422CD301242407A14204D244
:10534000814202D209011B01F8E7E400A14204D224
:10535000814202D249005B00F8E7884201D3401A3B
:105360001A434C08A04202D3001B5C0822438C085D
:10537000A04202D3001B9C082243CC08A04202D3C7
:10538000001BDC082243002803D01B0901D00909B7
:10539000E3E7101C6446002C00D5404210BC704767
:1053A000002806D003DB0020C043400801E0802035
:1053B000000607B4024802A14018029003BDC0468F
:1053C000190000000029EBD003B5FFF7A7FF0EBCC2
:1053D0004243891A1847C0467047C0468446101C8D
:1053E00062468C46191C634600E0C0461FB500F0BB
:1053F000B3FF002801D40021C8421FBD10B500F042
:10540000E3FE4042013010BD10B500F0A5FF0028BA
:1054100001DB002010BD012010BDC04610B500F01A
:105420009BFF002801DD002010BD012010BDC046FB
:1054300010B500F013FF002801DC002010BD012092
:1054400010BDC04610B500F009FF002801DA0020A9
:1054500010BD012010BDC046002B11D1002A0FD174
:10546000002900D1002802D00021C943081C07B43C
:10547000024802A14018029003BDC0465DFFFFFF35
:1054800003B4684601B5029800F044F8019B9E46BB
:1054900002B00CBC7047C0469C460304F0B51B0C20
:1054A00017043F0C150C1E1C041C000C7E436B43A0
:1054B00047434543FB18300C1818874202D9802314
:1054C0005B02ED18030CED1863465C434A43360457
:1054D000360CA118000480194919F0BDF0B583B04D
:1054E000161C1F1C0090019101F0F4FD041C0D1C02
:1054F000221C2B1C301C391CFFF7CEFF009A019B8D
:10550000121A8B410899201C0A604B60291C03B0B9
:10551000F0BDC046F0B583B0141C1D1C0090019175
:1055200001F0B4FF221C2B1C061C0F1CFFF7B4FF5C
:10553000009A019B121A8B410899301C0A604B603B
:10554000391C03B0F0BDC046F8B55F465646444628
:105550004D46F0B40C034D00CE0F610A440F2143B9
:10556000C400180380465800400D8246D80F844678
:105570004046400A530F0343D0006D0D371C83464D
:105580005246664500D19DE0AF1A002F00DC03E1D2
:10559000002A38D1184300D0E4E0630709D00F2374
:1055A0002340042B05D0231DA342A44164420919C2
:1055B0001C1C080200D478E0CE4B6A1C9A4200D131
:1055C00005E1CD4BE4081940480752054902044360
:1055D0000B0B520D371C002000211B03201C1C0B41
:1055E0000B0D1B05C54D2343520552081D401543A5
:1055F0006D006D08FF07291C39433CBC9046994655
:10560000A246AB46F8BDBB488542C6D08020000408
:105610000343382F00DDECE01F2F00DD20E12020C8
:10562000C01B1A1C814682405846F84002439446EB
:1056300058464A469040421E9041FB406246024313
:105640001F1CA21A9442A4416442C91B091B141CCA
:105650000B02A2D549024F0A002F00D1C4E0381C2A
:1056600001F01AFD021C083A1F2A00DDB7E02821CC
:10567000091A201C9740C84007439440954200DD1A
:10568000A9E0551B691C1F2900DDD8E01F22551B0E
:105690003B1C221CAB40CA40AC40651EAC411343CE
:1056A000CF401C43391C002577E74807E4086A050A
:1056B000C908520D371C04438E4B9D4248D0090344
:1056C0000B0B88E7AA1A9446002A00DC98E05046A3
:1056D000002853D08748854200D15EE7802000042F
:1056E00003436246382A00DDFDE01F2A00DD4BE15E
:1056F00020226046101A1A1C824082469146584663
:105700006246D0404A460243904658465246904030
:10571000421E9041424602436046C3401219A242D3
:10572000A441644259180919141C080200D434E732
:10573000704B01359D4200D124E16F4B6008194048
:10574000012323401C1C0443CB071C43490824E7C6
:105750000B1C234300D1C7E180231B030B431B0316
:105760001B0B38E7013F002F64D15846221A9442A0
:10577000A4416442C91A091B141C69E7584618431E
:1057800000D10AE70122524294446046002800D02A
:10579000C5E058460219C2E7002F72D1681C4005C7
:1057A000400D012800DCDEE05A46A21A9442BF41B7
:1057B000C81A7F42C71B380200D488E05A46141B1F
:1057C000A3459241591A52428F1A664644E7371C44
:1057D00000230024FFE64849AD1A3940DDE6271CC6
:1057E00028388740002449E7201C01F055FC203070
:1057F00038E75A461A43531E9A41D2B2002720E78F
:10580000002A00D0DDE0681C4205520D012A00DCB0
:105810008EE0384DA84200D1B3E05D462A19A2427D
:10582000A441644259180919CC0752081443490885
:10583000051CB2E62F48854200D0EAE6ADE62B1CF7
:105840001F3B3A1CDA40131C20296DD03F22551B08
:10585000AF403C43601E84411C43002100259CE670
:10586000381C20381A1CC240101C202F5ED0402249
:10587000D71BBB405A461A43531E9A410243002786
:10588000DFE6002D3CD01B4DAA4500D194E08025D9
:105890002D047F422943382F00DDADE01F2F00DDAE
:1058A0002CE12025ED1B081C261CA840FE40AC4026
:1058B0000643651EAC413443F9405D462C1BA345AD
:1058C00092415B1A5242991A55466646C0E6131C2D
:1058D0003B43141C002B00D0BEE60027002200250D
:1058E00000210024E8E65A461A43531E9A41D2B2D8
:1058F000002313E7FF070000FFFF7FFFFFFF0F807C
:105900000D1C254358D0FF43002F51D1041BA34544
:105910009241591A5242891A5546664698E6964867
:10592000854200D0DDE638E6002792E70023A1E7B4
:10593000081C2043002D00D0C0E0002800D1FBE06F
:105940005846184300D128E658460219A242A441FD
:10595000644259180919141C0A0200D41DE6874B29
:105960000125194019E6081C2043002D39D10028D3
:105970006DD15946194300D1BDE0191C5C466646FD
:105980000BE6051C2A1CABE7604620381A1CC240F7
:1059900060469146202800D1ABE04022121A934085
:1059A0005A461A43531E9A414B461A430023B5E602
:1059B000714DAA4500D06EE7191C5C4655466646F7
:1059C000EBE5002D1ED10D1C254373D0D543002DD2
:1059D0006DD15C445C459241591852428918554634
:1059E000A3E6002849D15946194300D196E0191C75
:1059F0005C466646604DD0E50C43611E8C41E4B2C6
:105A000000215AE75C4DAA4554D05542802210042B
:105A10000143382D00DD85E01F2D00DD95E02022BB
:105A2000501B0A1C84468240201CE84002439046DA
:105A300062469440601E844142461443E9405C44FF
:105A40005C459241CB185242991855466DE658462E
:105A5000184300D1A1E55846271ABC429241C81A02
:105A60005242801A02026AD55846041BA34592414D
:105A7000591A5242891A66468FE55846184336D05D
:105A80004807E40804438020C9080003014208D005
:105A9000DD08054205D15946CA085C071443291C94
:105AA0006646630FC9001943E400334D75E5324A79
:105AB0009245AED1191C5C4655466EE5002837D09C
:105AC0005846184313D080254807E408C9082D0319
:105AD00004432942E5D0D8082842E2D15D46EA08CD
:105AE0005C071443011CDCE70023002473E5224D0E
:105AF00053E5002354E700270022F1E63D1C203D3A
:105B00000A1CEA40151C202F31D04026F71BB94053
:105B10000C43611E8C412C430021CEE6164A00271F
:105B2000151CDDE60C43611E8C41E4B2002186E7C2
:105B3000191C5C46104D30E5191C5C462DE5031C14
:105B40003B43D8D0011C3C1C27E520204042401993
:105B50000A1CC2409046202D0BD04020451BA94076
:105B60000C43611E8C4145462C43002167E7002110
:105B7000CEE70021F4E7C046FF070000FFFF7FFFEC
:105B8000F0B5564644465F464D46F0B41F1C0B0325
:105B90001B0B98464B0087B0041C81465B0DC80F59
:105BA000161C9A460090002B51D06A4B9A4531D072
:105BB0008022414652030A43630FD2001A43664BC8
:105BC00090460025E20091469A44002402953B034A
:105BD0001B0B9B46FD0F7B00311C5B0D019560D0BC
:105BE0005C4A934254D08021584649030143720FC6
:105BF000C9001143584A8B469B18F1000020009AB7
:105C000004436A4003920F2C00D9ADE0534EA40028
:105C10003459A746404604436ED10021022508248A
:105C2000884689460295D2E7009C0298C3464946B9
:105C30000194022864D0032800D1ABE2012800D0EF
:105C400038E2019A002402400025A14660E0434664
:105C500023434AD04046002800D1C0E101F01CFA9D
:105C6000031E272B00DDB3E128210D1A211C083B60
:105C70004246E9409A400D1C1543221C9A40A84612
:105C80009146374B00251B1A9A46002402959EE741
:105C90005A4616430320002EB1D1B34600210220FC
:105CA000ADE75A4632431BD05B46002B00D18AE158
:105CB000584601F0F1F9272800DD7DE12822171A66
:105CC000011C321C08395B46FA408B40171C1F43ED
:105CD000331C8B40BB46191C214B1B1A00208EE73E
:105CE0000027BB460021012089E70020012504246C
:105CF0008046814602956AE703250C24029566E7F3
:105D0000019C0394039D01222A400024114DA146C9
:105D1000002000212403260B0C0D2405114B3443D5
:105D20002D0523402B435B005B08D207191C484616
:105D3000114307B03CBC90469946A246AB46F0BD25
:105D40000022802424039146024DE1E7002400252F
:105D5000A146DDE7FF07000001FCFFFFA8A6000049
:105D60000DFCFFFFFFFF0F805546ED1A0495D84547
:105D700000D953E100D14EE1049C0025013C4E4680
:105D800004944746A946584603020C0E1C430902D8
:105D9000250C23041B0C0091381C291C0193FFF7D0
:105DA0006DFA019983464143381C8A46291CFFF746
:105DB000A9FA330C090419438A450CD95B46091921
:105DC000013B8C4200D947E18A4500D844E10222D8
:105DD0005242934409195346CB1A181C291C984661
:105DE000FFF74CFA071C0198291C7843824640466D
:105DF000FFF788FA36040B04360C33439A4509D969
:105E00001B197A1E9C4200D924E19A4500D821E151
:105E1000023F1B195E4632041743380CBB46009EF6
:105E2000009F51463F0C32045B1A5946BA46120C89
:105E30000F043F0C904651467A434F43414641433D
:105E400056467043CF19160CBE19B14202D98027AD
:105E50007F02C019310C12043604120C4018B61817
:105E6000834200D2C4E000D1BEE0191A4846861B26
:105E7000B145BF417F42CF1BA74200D113E1291C8E
:105E8000381CFFF7FBF9019902904143381C894601
:105E9000291CFFF737FA330C0904194389450CD93B
:105EA000029B0919013B8C4200D9FFE0894500D8CB
:105EB000FCE0029F0919023F02974F46CF1B381C96
:105EC000291C0597FFF7DAF9071C0198291C78436C
:105ED00081460598FFF716FA36040904360C0E437E
:105EE000B14509D936197B1EB44200D9E0E0B1456D
:105EF00000D8DDE0023F3619029D4946761A290492
:105F000039430B0457460A0C1B0C40464546584380
:105F100055437B437A43EB18070CDB199D4202D9AA
:105F200080256D0252191D0C00041B04000C52192F
:105F30001B18964235D300D1FCE001231943049E7F
:105F4000994FF519002D00DCA1E0480709D00F2377
:105F50000B40042B05D00B1D8B42894149428B44D9
:105F6000191C5A46D20107D5904B5C46049E8027E7
:105F70001C40FF00A346F5198D4B9D427ADD039C22
:105F80000122224000248B4DA146C1E68024240337
:105F9000474627424CD13C432403240B009A854DAD
:105FA000B6E63619481EB4425ED9011C9642C4D1E9
:105FB000009E9E42C1D1C2E7031C283B311C994080
:105FC0008B46002188E6301C01F066F8203072E62E
:105FD000283B211C994000228846914651E6201C0E
:105FE00001F05AF820303BE60021B14500D33DE7EF
:105FF000009F5A46B944B945BF417F423F19FB183B
:10600000013A9C421ED2984200D97EE000D1B5E010
:10601000191A93462AE7894500D8ADE64846464610
:1060200042467708D3074608C0071E438146AAE6C2
:106030005846204212D1044324032A1C240B8946CB
:106040005C4D65E6A342E3D1009F4F45DBD9211AA1
:1060500093460BE7171CDDE69B46BCE63C43240356
:10606000240B009A534D53E6B24259D800D18AE02E
:10607000011C62E75F46C9087B07039E0B437C0255
:106080006D0501229946240B6D0D324040E64A4BC6
:10609000049FDB1B382B10DD039C012222400024CF
:1060A0000025A14634E60121494248E7029304E76E
:1060B0001F1C21E7019C039441E71F2B40DC3F4854
:1060C000049F0C1C3A1858469140DC4090402043F5
:1060D0000A1C511E8A41011C11435A46DA40131C06
:1060E000480709D00F220A40042A05D00A1D8A4217
:1060F000894149425B18111C1A0234D5039C0122C4
:10610000224000240125A14602E6009F02214942C7
:10611000B9448B44B945894149420919CB18A4E6D1
:10612000009D881E6900A942AD416D422C193619A7
:1061300000913AE7002B00D033E70024009437E7C2
:106140001F4A049C5D46121BD5402A1C202B1FD0E1
:106150001C4E5F46A3199F403B1C19434B1E99419F
:1061600011430023BCE75A07C9080A43039F91461D
:106170005B0201221C0B3A400025C9E54E45C4D8FC
:106180009346002172E6009F9F42C9D3011C0FE78E
:106190000023E2E7802424035F463C432403240BCE
:1061A000019A8946034DB3E5FF030000FFFFFFFEA0
:1061B000FE070000FF07000002FCFFFF1E040000B6
:1061C000E2FBFFFF3E040000F0B55F4656464D4639
:1061D0004446F0B40D1C041C8046E80F81461803A9
:1061E0000F03000B3F0B83B084461B480097490008
:1061F0005E00DF0F490D9246760DBB4681420CD002
:106200001548864210D00120B14215D003B03CBCE5
:1062100090469946A246AB46F0BD009F0120274319
:10622000F4D10D488642EED1604602430120002A97
:10623000ECD10120B142E9D1009B6345E6D1D045C4
:10624000E4D1D94506D00029E0D11C43201C441ECE
:10625000A041DBE70020D9E7FF070000F0B55F466B
:1062600056464D464446F0B4CD0FDE0FAC461D03F6
:106270002D0BB146374E0F034C00AB465D008046F8
:106280003F0B640D92466D0DB44232D0314EB54293
:1062900035D0002C0ED1384341424141081C002D1D
:1062A0000BD0002919D1CC452DD065466842012379
:1062B000184318E0002DF6D1281C59460A435342D2
:1062C0005341002806D1002BEDD0634658420123EC
:1062D000184308E00020002B05D14A4650425041A7
:1062E0004042012318433CBC90469946A246AB4627
:1062F000F0BD3E1C0643C9D002204042F3E75E4693
:106300001643C6D0F8E7AC4207DC0BDA61464842D8
:106310004841404201231843E5E7664670420123A5
:106320001843E0E75F450AD80ED000205F45DAD277
:10633000654668426841404201231843D3E76246FC
:10634000504201231843CEE7D045F8D80020D0456D
:10635000EED3C8E7FF070000F0B556464D46444669
:106360005F46F0B40D1C83B0041C0190E80F814619
:1063700018030F03000B3F0B844635480097490074
:106380005E00DF0F490D9246760DB846814234D04B
:106390002F48864236D0002918D0002E1FD1341C39
:1063A00067463A4353425341002C1FD00020002B34
:1063B00005D142465042504140420123184303B0A8
:1063C0003CBC90469946A246AB46F0BD00980443BB
:1063D00060426041041C002EE2D00028E9D1C14592
:1063E00015D04F46784201231843E8E7002BF6D03A
:1063F0004B46584201231843E1E7009F0220274300
:10640000DDD1C5E7674602201743D8D1C3E7B142C3
:1064100004DD4A46504201231843D0E7B14207DB6E
:1064200000986045E4D80AD0009F00206745C6D296
:106430004F4678427841404201231843BFE7019A12
:106440005245D5D8019A00205245F1D3B7E7C0464E
:10645000FF070000F0B5564644465F464D46F0B48F
:106460001F1C0B031B0B9A464B0087B0041C804675
:106470005B0DC80F161C02938146002B68D0694B38
:106480000299994232D08022534652031A43D200D5
:10649000630F1A439246644AE000891880460291CD
:1064A000002400253B031B0B9B467800FB0F321C8E
:1064B000400D039300D175E05A4B984269D0802279
:1064C000594652030A43730FD2001A43564B934660
:1064D000C018F200002303994E4671401C430F2C54
:1064E00000D9A9E0514EA4003459A74653461C4395
:1064F00000D087E00025AA46A84608240225D1E757
:106500004946022D6CD0032D00D117E2012D00D099
:1065100058E10D40EDB20024A9460023A04600201A
:10652000002125030A0D1C052D0B1205404B2A43A3
:10653000134023435B004C465B08E207191C4046AE
:10654000114307B03CBC90469946A246AB46F0BD0D
:106550005346234350D05346002B00D184E150468C
:1065600000F09AFD031E272B00DD76E128210D1A8D
:10657000211C083B5246E9409A400D1C1543221C41
:106580009A40AA4690462B4B00241B1A02930025E2
:1065900088E75B461E430323002E9CD1B3460022AE
:1065A000022398E75B46334321D05846002800D1A8
:1065B0004EE100F071FD272800DD42E128210F1A8D
:1065C000021C311C083A5B46F94093400F1C1F43E4
:1065D000331C9340BB461A1C164B181A00237AE74B
:1065E00001230B4000249946A0460E4B97E7002755
:1065F000BB46002201236EE7002104248A46884618
:1066000001254FE70C2403254CE700258024A946EB
:106610002403A846034B82E7DA46904603991D1CE3
:106620006FE7C046FF07000001FCFFFFE8A600007F
:10663000FFFF0F800DFCFFFF029F160C381804901F
:106640004046070C0004000C1204120C031C5343B8
:10665000041C3D1C7443554398463B1C734364190A
:10666000A44644460293230C63449D4204D9029DF0
:10667000802464022D1902951D0C039545462C04B7
:106680001B04240C1C1905945C46230C051C584360
:106690002404240C8446381C604365435F438146D0
:1066A000CC44280C6044BB46814502D980277F0238
:1066B000BB442D04070C2D0C000440195546BC4664
:1066C0002F04E3448446280C3D0C2F1C5743B84646
:1066D0002F1C77434243B94647463F0C9144BA4684
:1066E000D14446434A4502D980225202B6184F4649
:1066F0003A0CB6183A0447463F043F0CB8462F1CE4
:1067000067435D434443584365190190380C2D1885
:106710004244B846AC4204D9019880235B02C018B9
:106720000190039C029F201C6044C0196045A44155
:1067300047466442A4462B043C049946240C4C442E
:10674000A046D8448018C246E2449042924157463F
:1067500052429146F219E245BF417F424B46BC4648
:10676000D845BF41D4187F4263461F432D0C7F1983
:10677000B24292414C45AD4152426D421543019E99
:106780007D19AB19E20D5B02059F134342023A43A8
:106790009A46531E9A41C30D101C184364022043AD
:1067A00080465046C0010DD5454601225646049C00
:1067B0006B082A401A43F30701341A4376080494FD
:1067C0009046B246049E634FF319002B61DD4046AC
:1067D00040070BD00F2244462240042A06D04246EE
:1067E0000432424580414042824490465546ED0184
:1067F00007D5594B5646049F80201E40C000B24624
:106800003B18564A934200DDEAE644465546E20804
:106810006807104301226C025B050A408046240B86
:106820005B0D91467BE6DA4690461D1C69E68024A6
:106830002403574627421CD13C432403240B484BD6
:106840006DE6031C283B311C99408B460022C3E6B1
:10685000301C00F021FC2030ADE6283B211C994083
:1068600000228A4690468EE6201C00F015FC20305F
:1068700078E65846204207D1044303992403240BA9
:1068800089469046364B4AE63C432403240B344B5E
:1068900045E6344B049E9B1B382B06DD01230B4041
:1068A00000249946A046002339E61F2B25DC049CD2
:1068B0002D4D46466019524644468640DC40824093
:1068C0005746301C2243DF40441EA04102433B1C7C
:1068D000540709D00F201040042805D0101D904205
:1068E000924152429B18021C1D021AD501230B40F3
:1068F00000249946A046012311E61C48049C5546F5
:10690000001BC540281C202B16D0194E5746A21933
:1069100097403A1C43461A43531E9A4102430023B0
:10692000D6E758075B02D2081C0B01230B4010432B
:10693000994680460023F2E50022EBE780242403F9
:1069400050460123044319402403240B8946044B79
:10695000E5E5C046FF030000FFFFFFFEFE07000065
:10696000FF07000002FCFFFF1E040000E2FBFFFF28
:106970003E040000F8B55F46564644464D46F0B426
:106980000C034D00CF0F610A440F2143C4001803CC
:10699000DE0F8046B44646465800760A530F33430E
:1069A000D600C94A6D0DBA46400DB346904200D19B
:1069B000EBE06246012672409446674500D1A1E0B3
:1069C0002F1A002F00DC08E100283BD1584618435D
:1069D00000D0E8E0600709D00F232340042B05D046
:1069E000231DA342A441644209191C1C0A0200D4BD
:1069F00079E0B54B6A1C9A4200D109E1B34BE40837
:106A000019404807044349025205012750460B0B21
:106A1000520D0740002000211B03201C1C0B0B0DF6
:106A20001B05AB4D2343520552081D4015436D0015
:106A30006D08FF07291C39433CBC90469946A24685
:106A4000AB46F8BDA0488542C4D080200004034373
:106A5000382F00DDF0E01F2F00DD24E12020C01BD7
:106A60001A1C5E468240FE40324394465A4682409B
:106A7000101C421E9041FB40624602431F1CA21A9A
:106A80009442A4416442C91B091B141C0A02A1D5EB
:106A900049024F0A002F00D1C9E0381C00F0FCFA6F
:106AA000021C083A1F2A00DDBCE02821231C091A19
:106AB0009740CB401F439440954200DDAEE0551B0C
:106AC000691C1F2900DDDDE01F22551B3B1C221C19
:106AD000AB40CA40AC40651EAC411343CF401C43A1
:106AE000391C002576E74807E4086A050127564661
:106AF000C908520D37400443734B9D4249D00903E6
:106B00000B0B87E72A1A9446002A00DC9BE000283A
:106B100055D06D48854200D15CE7802000040343D6
:106B20006046382800DD09E11F2800DD50E162469B
:106B30002020801A1E1C8640B1465E46D6404A463A
:106B400032435E4686409046301C421E904142468B
:106B500002436046C3401219A242A441644259183C
:106B60000919141C080200D434E7574B01359D4223
:106B700000D142E1554B60081940012323401C1C01
:106B80000443CB071C43490824E71E4300D014E705
:106B90000FE70B1C234300D1CFE180231B030B43E2
:106BA0001B031B0B36E7013F002F66D15E46A21B7D
:106BB0009442A4416442C91A091B141C66E7584652
:106BC000184300D106E701267642B4446046002807
:106BD00000D0CAE05E463219BEE7002F7AD1681CA9
:106BE0004005400D012800DCE3E05A46A21A944219
:106BF000BF41C81A7F42C71B3E0200D492E05846EC
:106C0000041BA3459241591A52428F1AE24641E7AA
:106C1000534601271F4000240023FBE62B49AD1AF1
:106C20003940D7E6271C28388740002444E7201C39
:106C300000F032FA203033E75A461A43531E9A4185
:106C4000D2B200271BE7002A00D0E1E0681C46050D
:106C5000760D012E00DC91E01B4DA84200D1F7E03B
:106C60005E463219A242A441644259180919CC0760
:106C7000520814434908051CACE61348854200D06D
:106C8000E6E6A7E62B1C1F3B3E1CDE40331C2029FA
:106C900070D03F22551BAF403C43601E84411C43D3
:106CA0000021002596E6381C20381E1CC640301CEA
:106CB000202F61D04022D71BBB405A461A43531E97
:106CC0009A4102430027DAE6FF070000FFFF7FFF3B
:106CD000FFFF0F80002D38D0B94DA84200D192E0BF
:106CE00080252D047F422943382F00DDAAE01F2F85
:106CF00000DD2CE12025ED1B0E1CAE40B046261C0D
:106D0000FE404246AC401643651EAC413443F94058
:106D10005A46141BA34592415B1A5242991A051C0C
:106D2000E246B3E6131C3B43141C002B00D0B1E633
:106D300000270022002500210024DDE65A461A43E0
:106D4000531E9A41D2B2002305E70D1C25435AD0A9
:106D5000FF43002F53D15A46141BA3459241591AA1
:106D60005242891A051CE24690E69548854200D0B9
:106D7000D6E62FE600278FE700239EE7081C204376
:106D8000002D00D0C3E0002800D1F6E0584618439B
:106D900000D11FE658460219A242A4416442591884
:106DA0000919141C0A0200D414E6864B0125194067
:106DB00010E6081C2043002D3AD1002800D089E0BD
:106DC0005946194300D1BFE0191C5C46E24601E672
:106DD000604620381A1CC2406646101C202E00D186
:106DE000B0E04022921B93405A461A43531E9A41E8
:106DF00002430023AFE6724D00272A1C9BE7704D2B
:106E0000A84200D070E7191C5C46051CE246E1E58B
:106E1000002D20D10D1C254375D0D543002D6FD1F9
:106E20005C445C459241591852428918051C99E608
:106E3000002835D159461943DDD0191C5C46E2467D
:106E40005F4DC7E50C43611E8C41E4B200215FE752
:106E5000051C021C6FE75A4DA84254D055428022AF
:106E600016043143382D00DD81E01F2D00DD91E057
:106E70002022561B0A1CB446B240261CEE40324368
:106E8000904662469440661EB44142461443E9402F
:106E90005C445C459241CB1852429918051C61E64E
:106EA000584618434CD04807E40804438020C908DA
:106EB0000003014208D0DD08054205D15946CA0841
:106EC0005C071443291CE246630FC9001943E40020
:106ED0003B4D7FE55846184300D17BE55E46A71B36
:106EE000BC429241C81A5242801A06024CD55846FA
:106EF000041BA3459241591A5242891AE24669E598
:106F00002F4A9042AED1191C5C46051C62E5002850
:106F100036D05846184313D080254807E408C908DE
:106F20002D0304432942CFD0D8082842CCD15D4656
:106F3000EA085C071443011CC6E70023002469E546
:106F40001F4D47E500234FE700270022F3E63D1CD5
:106F5000203D0E1CEE40351C202F2DD04026F71B67
:106F6000B9400C43611E8C412C430021D0E60C43F8
:106F7000611E8C41E4B200218AE7191C5C4629E5B8
:106F8000191C5C460E4D25E5031C3B43DCD0011C5F
:106F90003C1C1FE52026764276190A1CF2409046DA
:106FA000202D0BD04026751BA9400C43611E8C413F
:106FB00045462C4300216BE70021D2E70021F4E78E
:106FC000FF070000FFFF7FFF70B50B1C124C090389
:106FD0000E0B5900021C490DDD0F0020A14211DDEE
:106FE0000E4881420FDC8020400306430C48401AC3
:106FF0001F280BDD0B4A521AD640321C5042002D7E
:1070000000D1101C70BD084BE818FBE7074BC240CD
:10701000C9188E403243F1E7FE0300001D04000052
:107020003304000013040000FFFFFF7FEDFBFFFFB0
:1070300010B5041E28D000F02FF8154A121A0A289D
:1070400015DD0B38844024035205240B520D002318
:10705000002000212403181C0B0D240B1B052343C7
:107060000C4C12051C4014436400610810BD031C45
:107070001533211C99400B1C0B21081AC440240312
:107080005205240B520DE3E7002200240023DFE722
:107090001E040000FFFF0F801C2101231B049842E7
:1070A00001D3000C10391B0A984201D3000A083999
:1070B0001B09984201D30009043902A2105C401850
:1070C0007047C046040302020101010100000000F4
:1070D00000000000F0B544465F4656464D46F0B409
:1070E0001C1C85B0002900DADBE00F1C0021061C07
:1070F0008A46101C191C002C00DAC9E00196009089
:1071000089468046002951D1B84200D871E0FFF786
:10711000C3FF002809D020234546311C1B1A854097
:107120008740D940A8460F4386404246150C1304B9
:107130001B0C291C381C9B46FEF7A0F85B464343FA
:10714000041C291C381C9946FEF7DCF8330C080493
:107150001843814509D94044631E804500D978E130
:10716000814500D875E1023C40444946411A8946B0
:10717000081C291CFEF782F85A464243071C291CAA
:1071800048469346FEF7BEF836040904360C0E4313
:10719000B34507D946447B1EB04502D8023FB345EC
:1071A00000D81F1C24042743002403E0B94211D94E
:1071B000002400275246381C211C002A03D03B1C07
:1071C00000215842A14105B03CBC90469946A246D8
:1071D000AB46F0BD081CFFF75FFF041E00D0BFE008
:1071E000B94500D242E1019D0099071C8D424741FB
:1071F000E0E7002804D101200021FEF73FF8804697
:107200004046FFF749FF002852D1414644460B044F
:107210003C1B1B0CA3460D0C00930124291C584653
:10722000FEF72CF8009F81464743291C5846FEF77D
:1072300069F8330C090419438F4208D94B4641447D
:10724000013B884502D88F4200D91AE19946C91BF3
:107250008B46081C291CFEF711F8009B291C434390
:10726000071C58460093FEF74DF83604009D0904AC
:10727000360C0E43B54207D946447B1EB04502D8B2
:10728000023FB54200D81F1C49460E04374391E720
:107290005246D243031C0C1C924600215842A14185
:1072A0002CE7002746428F41012149428A4620E7C8
:1072B00020231B1A4246351C82403C1CDD40DC402A
:1072C00087402B1C150C3B43291C8640201C009337
:1072D00017049046FDF7D2FF3F0C011C794381460D
:1072E0008B46201C291CFEF70DF8009C0904230C7A
:1072F00019438B450CD94B464144013B884500D985
:10730000BDE08B4500D8BAE002225242914441448C
:107310005C460C1B201C291C0194FDF7AFFF391C97
:107320004143041C8B460198291CFDF7EBFF009A92
:10733000090413041B0C19438B4509D94144631EEE
:10734000884500D997E08B4500D894E0023C414441
:107350005B46CB1A49469B460B041C4300975DE7EE
:10736000009D20231B1A4A468240DD401543391CEC
:10737000009AD94082408846311C0092D9403A1C7C
:1073800082400B1C134301932F0C2B041B0C391C44
:1073900040460293FDF772FF029A81464243391C30
:1073A00040469346FDF7AEFF019A0904130C1943BA
:1073B0008B450AD94B464919013B8D425DD88B4517
:1073C0005BD902235B42994449195A468A1A101C18
:1073D000391C0392FDF752FF029B80464343391C40
:1073E00003989B46FDF78EFF019A090413041B0CBA
:1073F00019438B450AD943464919013B8D4238D878
:107400008B4536D902235B42984449195D464D1B92
:10741000AB464946009D0F04424617432A04120C0E
:107420003B042D0C1B0C380C111C594342436B437D
:107430006843D3180D0C5B198C469A4202D98022FE
:10744000520280181D0C401983450CD303D0002430
:10745000B0E61C1C89E665462A041B04120C9B1826
:10746000A6409E42F3D2013F0024A3E60024012758
:10747000A0E69846CAE71C1C6AE79946A5E7994624
:1074800046E70222524291444144E0E6F0B55F46AD
:1074900056464D464446F0B40D1C85B0061C924637
:1074A00098460290019103921F1C141C8346A94622
:1074B000002B59D1AA4269D9101CFFF7EDFD002815
:1074C0000AD020231B1A311CD94085400B1C2B43AA
:1074D000864084409946B346250C23041B0C291C86
:1074E00048469846FDF7CAFE4646071C4643291CF7
:1074F0004846FDF707FF5A460904130C19438E420C
:1075000009D909197B1E8C4200D957E18E4200D857
:1075100054E1023F0919891B8946081C291CFDF703
:10752000ADFE43464343061C291C48469846FDF7DA
:10753000E9FE5A46130409041B0C1943884508D96F
:107540000919731E8C4200D936E1023E884500D8E5
:1075500032E1380430430027391C05B03CBC90466A
:107560009946A246AB46F0BD019A934262D8181CD8
:10757000FFF792FD041E60D1019B9F4200D22CE1D7
:10758000029F03998F4260410027E5E7002A04D15A
:1075900001200021FDF772FE041C201CFFF77CFD7A
:1075A000002800D0B9E023042D1B1B0CA946260C93
:1075B00098460127311C4846FDF760FE414641438D
:1075C000051C8A464846311CFDF79CFE5A460804B5
:1075D000130C1843824507D900196B1E844202D848
:1075E000824500D910E11D1C5346C31A181C311CDA
:1075F0009A46FDF743FE4146414381468846504640
:10760000311CFDF77FFE5A46130409041B0C194375
:1076100088450BD94B460919013B8C4200D9CFE074
:10762000884500D8CCE002235B42994428044946AF
:10763000084391E7002700208EE720231B1A4246CB
:1076400057468240DF401743524682400192321C27
:10765000DA40291CD9408540131C2B4302933D0C72
:107660003B041B0C8846081C291C9A46FDF706FEA5
:10767000534643438146291C40469B46FDF742FE44
:10768000029A0904130C19438B4506D94B46C919B4
:10769000013B8F4200D8ABE099465A468A1A101C2B
:1076A000291C9346FDF7EAFD53464343291C8046B7
:1076B00058469A46FDF726FE029A090415042D0C39
:1076C00029438A4506D94346C919013B8F4200D850
:1076D00086E098465746CF1BBA464946019F0804A4
:1076E000424610433D042D0C03043F0C1B0C020CBE
:1076F000291C594355437B437A43EB180F0CDB1984
:107700008C469D4202D980277F02D2191D0C521946
:1077100092455FD356D000271EE720231B1A311C49
:107720002F1CD940DF4085400B1C84402B438640F2
:107730000193B3462304260C1B0C381C311C9846BD
:10774000FDF79CFD42464243051C311C381C914606
:10775000FDF7D8FD019F09043B0C1943894507D962
:1077600009196B1E8C424DD889454BD9023D091928
:107770004A468A1A101C311C9246FDF77FFD43468B
:107780004343071C311C50469946FDF7BBFD019A47
:10779000090413041B0C1943894507D909197B1ED9
:1077A0008C422DD889452BD9023F09194B46CB1A5B
:1077B0002D0499462F43FDE61E1CCAE61F1CAAE6AF
:1077C000994633E761460A041B04120C9B18A64035
:1077D0009E42A0D201380027BEE600270120BBE66A
:1077E0008A4500D875E702235B429844C91971E7BE
:1077F0008B4500D850E702235B429944C9194CE7F6
:107800001F1CD3E71D1CB3E7023D0019ECE6C04680
:1078100008B5031C081C191C00F008F808BD08B5C1
:1078200000210A2200F022FA08BD000038B5051C2C
:1078300005480C1C131C002804D00220291C221C03
:1078400000E000BF38BDC0460000000070B50E4B20
:107850000E4D0024ED1AAD101E1CAC4204D0A30046
:10786000F35898470134F8E702F0B2F9084B094D94
:107870000024ED1AAD101E1CAC4204D0A300F35836
:1078800098470134F8E770BD280100202801002046
:10789000280100203C010020034B1B681818407889
:1078A000082318407047C046EC00002008B5034B81
:1078B000011C186800F080F808BDC046E8000020F0
:1078C00008B5034B011C186800F02EF808BDC0462F
:1078D000E800002010B50023934203D0CC5CC454D0
:1078E0000133F9E710BD70B5814201D300230CE0EC
:1078F0008C18A042FAD28518131C013B0BD35142BD
:107900006618F65C6918CE54F7E7934203D0CC5C56
:10791000C4540133F9E770BD031C8218934202D0AE
:1079200019700133FAE7704730B5002940D00439A7
:107930000B68002B00DAC9181E4A1368141C002BB0
:1079400002D14B60116033E099420FD208680A18E7
:107950009A4205D113685268C01808604A6000E076
:107960004B60216024E08A4203D8131C5A68002A25
:10797000F9D11D685C198C420BD109686918581837
:107980001960904214D114685268091919605A603C
:107990000EE08C4202D90C23036009E008680C1841
:1079A000944203D114685268001908604A60596013
:1079B00030BDC0464C0A002070B50323CD1C9D434A
:1079C0000835061C0C2D01D20C2501E0002D3FDBF3
:1079D0008D423DD3204B1C681A1C211C002913D05A
:1079E0000868431B0DD40B2B02D90B60CC181EE08A
:1079F0008C4202D1636813601AE0486860600C1C16
:107A000016E00C1C4968E9E7144C2068002803D1F3
:107A1000301C00F031F82060301C291C00F02CF8DC
:107A2000431C15D0C41C03239C4384420AD1256007
:107A3000201C0B300722231D9043C31A0BD05A423F
:107A4000E25008E0211A301C00F016F80130EED1A7
:107A50000C233360002070BD4C0A0020480A00202F
:107A600008B50A1C0349031C0868191C02F028F811
:107A700008BDC046E800002038B5074C0023051CAF
:107A8000081C236002F08AF8431C03D12368002BF2
:107A900000D02B6038BDC046540A00200EB400B59B
:107AA0009CB01DAB04CB822202A992008A810A4AB3
:107AB00002908A604A6101225242CA81074A0861E3
:107AC00010681D9A019300F03FF9029A0023137089
:107AD0001CB008BC03B01847FFFFFF7FE800002080
